:020000040000FA
:040000000DEF00F010
:08000800D9EF1DF0BEEF1CF062
:10001000FA6AFB6AD890E834F96E4DEC1DF0E9EC11
:100020001CF00A0EFCEC1CF002988EEC1DF0030E86
:10003000DCEC1CF0320E32EC1DF0030EDCEC1CF09C
:10004000320E32EC1DF0030EDCEC1CF0320E32EC02
:100050001DF0320ECBEC1CF0280ECBEC1CF0969071
:100060009598969293909392939493969398939A4B
:10007000939C939E94809482948494869488948A8A
:10008000948C948E9580958295849586066A076AED
:1000900000920094086A096A00860A6A0B6A0C6A70
:1000A0000D6A0E6A0F6A9684959E959A959C048EA9
:1000B00074EC1DF0049A78EC1DF0010E4B6E010EED
:1000C0004C6E04987AEC1DF079EC11F0058072EC1E
:1000D0001DF0A6EC1CF0A3EC1CF0500EC0EC1CF0C4
:1000E000720EC0EC1CF0650EC0EC1CF0610EC0EC92
:1000F0001CF06D0EC0EC1CF0700EC0EC1CF0200E5D
:10010000C0EC1CF0560EC0EC1CF0650EC0EC1CF0F0
:10011000720EC0EC1CF02E0EC0EC1CF0200EC0ECD9
:100120001CF0310EC0EC1CF02E0EC0EC1CF0300E9A
:10013000C0EC1CF0300EC0EC1CF0A0EC1CF0200E4B
:10014000C0EC1CF0200EC0EC1CF0450EC0EC1CF006
:100150006C0EC0EC1CF0650EC0EC1CF06B0EC0EC1D
:100160001CF0740EC0EC1CF06F0EC0EC1CF0720E94
:10017000C0EC1CF0200EC0EC1CF0320EC0EC1CF0E9
:10018000300EC0EC1CF0300EC0EC1CF0340EC0EC95
:100190001CF0200EC0EC1CF0200EC0EC1CF00A0E6F
:1001A00093EC15F0A6EC1CF04D6A65EC1DF04E507A
:1001B000106E10502A08D8B4E2EF00F080EC12F074
:1001C00002EC13F028EC14F082A0F0EF00F0B3EC96
:1001D00002F028EC14F0F9EC10F01350FEEC10F0E3
:1001E00048500108D8A4F9EF00F0116A126AF9EC3E
:1001F00010F048500208D8A418EF01F0A6EC1CF04B
:10020000A0EC1CF0E6EC17F09DEC1CF091EC1CF05F
:1002100043EC12F091EC11F00852D8A416EF01F063
:1002200043EC12F091EC11F00CEF01F0A6EC1CF095
:1002300048500308D8A423EF01F04950116E4A50EA
:10024000126EF9EC10F01350FEEC10F004887AEC0A
:100250001DF023500108D8A43EEF01F0F7EC1AF08E
:100260009DEC1CF079EC1CF012500C6E11500B6ED2
:10027000126A116AA5EC10F040EF01F0F9EC10F0F1
:10028000010E0A6E010E0E6E008600A675EF01F0DB
:1002900090EC0EF0EEEC12F00096010E0A6E010EDC
:1002A0000E6E21500108D8B45BEF01F02150020816
:1002B000D8A460EF01F0059270EC1DF063EF01F03F
:1002C000058270EC1DF022500108D8B46DEF01F0EA
:1002D00022500208D8A472EF01F0058072EC1DF0E4
:1002E00075EF01F0059072EC1DF00E50586E640E23
:1002F000596EC6EC1DF04D6E4D500108D8A491EF1B
:1003000001F021500208D8A489EF01F0058270ECB9
:100310001DF022500208D8A491EF01F0059072EC74
:100320001DF00A500001FF08D8A49BEF01F090ECEB
:100330000EF0010E0A6E43EC12F091EC11F0085031
:100340000C08D8A4C2EF01F004987AEC1DF0A6ECDA
:100350001CF0A0EC1CF091EC1CF0050EF4EC1CF071
:1003600043EC12F091EC11F00852D8A4BEEF01F06A
:1003700043EC12F091EC11F0B4EF01F004887AEC48
:100380001DF0008611500008D8B0DAEF01F01250CD
:100390000008D8B0DAEF01F008500808D8A4DAEF66
:1003A00001F0010E115C116E010E125C126EF9EC7F
:1003B00010F000861450115CD8B0EEEF01F014502C
:1003C000125CD8B0EEEF01F008500408D8A4EEEFAC
:1003D00001F0112A122AF9EC10F0008608500308E7
:1003E000D8A408EF02F0D89012304E6ED890113099
:1003F0004E24116E1150126EF9EC10F008500308E3
:10040000D8A407EF02F043EC12F0FEEF01F00086F3
:1004100011500008D8B01EEF02F01450125CD8B092
:100420001EEF02F008500108D8A41EEF02F0010EE2
:10043000115C116E122AF9EC10F000861450115C58
:10044000D8B034EF02F012500008D8B034EF02F008
:1004500008500208D8A434EF02F0112A010E125CF1
:10046000126EF9EC10F0008609500108D8A43FEF95
:1004700002F081B03FEF02F0010E85EC0DF0095063
:100480000208D8A44AEF02F081B24AEF02F0020E4D
:1004900085EC0DF009500408D8A455EF02F081B4A2
:1004A00055EF02F0030E85EC0DF009500808D8A4B2
:1004B00060EF02F081B660EF02F0040E85EC0DF003
:1004C00081B86FEF02F02552D8A46FEF02F0095007
:1004D0001008D8A46FEF02F0050E85EC0DF081BA7C
:1004E0007EEF02F02552D8A47EEF02F009502008DA
:1004F000D8A47EEF02F0060E85EC0DF081BC8DEFE6
:1005000002F02552D8A48DEF02F009504008D8A47B
:100510008DEF02F0070E85EC0DF081BE9DEF02F02D
:100520002552D8A49DEF02F0095000018008D8A4FC
:100530009DEF02F0080E85EC0DF00A2A0E2A1150EC
:10054000145CD8A0A9EF02F01250145CD8B0AFEF41
:1005500002F01450116E1450126EF9EC10F045EFC9
:1005600001F0B1EF02F0A6EC1CF0A3EC1CF0530E6E
:10057000C0EC1CF0650EC0EC1CF0740EC0EC1CF05E
:10058000750EC0EC1CF0700EC0EC1CF0200EC0EC20
:100590001CF0200EC0EC1CF0560EC0EC1CF0650EDA
:1005A000C0EC1CF0720EC0EC1CF02E0EC0EC1CF067
:1005B000200EC0EC1CF0310EC0EC1CF02E0EC0EC76
:1005C0001CF0300EC0EC1CF0300EC0EC1CF00A0E1B
:1005D00093EC15F0A6EC1CF0020E1AEC03F043ECC1
:1005E00012F008500408D8A4F9EF02F0010E1AEC3A
:1005F00003F008500808D8A401EF03F0000E1AEC2D
:1006000003F008500208D8A40AEF03F002EC13F03C
:1006100019EF03F008500108D8A417EF03F097EC86
:1006200003F0050EF4EC1CF0020E1AEC03F0EFEFF1
:1006300002F012004D6E4D500108D8A421EF03F0D6
:100640004C2A4D52D8A428EF03F0010E4C5C4C6E9E
:100650004C52D8A42EEF03F00D0E4C6E4C500D08EA
:10066000D8B035EF03F0010E4C6EA6EC1CF04C50E8
:100670000108D8A43EEF03F094EC1BF04C500208A4
:10068000D8A445EF03F074EC1BF04C500308D8A439
:100690004CEF03F04AEC1BF04C500408D8A453EF85
:1006A00003F0CAEC1AF04C500508D8A45AEF03F036
:1006B000ACEC1AF04C500608D8A461EF03F05FECE4
:1006C0001AF04C500708D8A468EF03F03CEC1AF07D
:1006D0004C500808D8A46FEF03F039EC1BF04C50D5
:1006E0000908D8A476EF03F00FEC1BF04C500A0871
:1006F000D8A47DEF03F0B0EC1BF04C500B08D8A44D
:1007000084EF03F0AAEC1BF04C500C08D8A48BEF3C
:1007100003F0CEEC17F04C500D08D8A492EF03F084
:100720007DEC1AF015EC1AF0030EF4EF1CF04C50AF
:100730000108D8A4A1EF03F06EEC0AF0030EF4EC6C
:100740001CF04C500208D8A4ABEF03F0F3EC09F016
:10075000030EF4EC1CF04C500308D8A4B5EF03F0E2
:10076000B8EC09F0030EF4EC1CF04C500408D8A4CB
:10077000BFEF03F022EC07F0030EF4EC1CF04C503A
:100780000508D8A4C6EF03F0ADEC0CF04C500608F9
:10079000D8A4D0EF03F074EC09F0030EF4EC1CF0D5
:1007A0004C500708D8A4DAEF03F0F5EC07F0030E7D
:1007B000F4EC1CF04C500808D8A4E4EF03F0ACECC7
:1007C00004F0030EF4EC1CF04C500908D8A4EEEF32
:1007D00003F0C5EC06F0030EF4EC1CF04C500A08D4
:1007E000D8A4F8EF03F070EC06F0030EF4EC1CF064
:1007F0004C500B08D8A402EF04F01BEC06F0030EDB
:10080000F4EC1CF04C500C08D8A40CEF04F016ECDF
:1008100004F0030EF4EC1CF04C500D08D8A415EFB6
:1008200004F080EC12F015EF04F01200020E4D6E91
:100830004D5073EC04F043EC12F008500108D8A4BA
:1008400030EF04F04D500108D8A42BEF04F0020E55
:100850004D6E2DEF04F0010E4D6E4D5073EC04F013
:1008600008500408D8A44AEF04F04D500108D8A459
:1008700043EF04F0482A48500408D8A441EF04F09C
:10088000486A47EF04F01150496E12504A6E4D50BD
:1008900073EC04F008500808D8A466EF04F04D503B
:1008A0000108D8A45FEF04F04852D8A45AEF04F02E
:1008B000040E486E010E485C486E63EF04F0115060
:1008C000496E12504A6E4D5073EC04F0030EF4EC76
:1008D0001CF008500208D8A470EF04F072EF04F086
:1008E0001BEF04F012004E6EA6EC1CF04E500108F7
:1008F000D8A4A6EF04F04852D8A481EF04F031EC5C
:100900001CF048500108D8A488EF04F091EC1CF0CA
:1009100048500208D8A49DEF04F091EC1CF0200E82
:10092000C0EC1CF02D0EC0EC1CF03E0EC0EC1CF018
:10093000200EC0EC1CF031EC1CF048500308D8A489
:10094000A4EF04F0D4EC17F0A8EF04F09EEC17F03D
:10095000A0EC1CF0FBEF19F0010E4D6E4D5001089C
:10096000D8A4D0EF04F0A6EC1CF0430EC0EC1CF0B1
:10097000680EC0EC1CF04B50300FC0EC1CF03A0E6F
:10098000C0EC1CF0200EC0EC1CF04B50D9EC05F074
:10099000A7EC0FF0FBEC19F04D6A030EF4EC1CF021
:1009A00043EC12F008500408D8A441EF05F04B5076
:1009B0000108D8A4E4EF04F02E2A2E502408D8B061
:1009C000E4EF04F0010E2E6E4B500208D8A4F1EFB4
:1009D00004F02F2A2F502408D8B0F1EF04F0010EB4
:1009E0002F6E4B500308D8A4FEEF04F0302A30508D
:1009F0002408D8B0FEEF04F0010E306E4B5004080E
:100A0000D8A40BEF05F0312A31502408D8B00BEFF1
:100A100005F0010E316E4B500508D8A418EF05F013
:100A2000322A32502408D8B018EF05F0010E326E89
:100A30004B500608D8A425EF05F0332A335024087C
:100A4000D8B025EF05F0010E336E4B500708D8A43F
:100A500032EF05F0342A34502408D8B032EF05F0D4
:100A6000010E346E4B500808D8A43FEF05F0352A2C
:100A700035502408D8B03FEF05F0010E356E010E59
:100A80004D6E08500808D8A4C0EF05F04B5001087F
:100A9000D8A455EF05F02E500108D8A452EF05F068
:100AA000250E2E6E010E2E5C2E6E4B500208D8A421
:100AB00064EF05F02F500108D8A461EF05F0250E72
:100AC0002F6E010E2F5C2F6E4B500308D8A473EFCE
:100AD00005F030500108D8A470EF05F0250E306EF7
:100AE000010E305C306E4B500408D8A482EF05F044
:100AF00031500108D8A47FEF05F0250E316E010EAC
:100B0000315C316E4B500508D8A491EF05F032509E
:100B10000108D8A48EEF05F0250E326E010E325C6E
:100B2000326E4B500608D8A4A0EF05F033500108F0
:100B3000D8A49DEF05F0250E336E010E335C336EA5
:100B40004B500708D8A4AFEF05F034500108D8A4E3
:100B5000ACEF05F0250E346E010E345C346E4B5054
:100B60000808D8A4BEEF05F035500108D8A4BBEFA3
:100B700005F0250E356E010E355C356E010E4D6E9D
:100B800008500108D8A4CFEF05F04B2A4B500908B4
:100B9000D8A4CDEF05F0010E4B6E010E4D6E08503E
:100BA0000208D8A4D6EF05F0D8EF05F0AEEF04F0B8
:100BB00012004F6E4F500108D8A4E2EF05F02E50FE
:100BC0001AEF06F04F500208D8A4EAEF05F02F50B4
:100BD0001AEF06F04F500308D8A4F2EF05F030509A
:100BE0001AEF06F04F500408D8A4FAEF05F0315080
:100BF0001AEF06F04F500508D8A402EF06F0325065
:100C00001AEF06F04F500608D8A40AEF06F033504A
:100C10001AEF06F04F500708D8A412EF06F0345030
:100C20001AEF06F04F500808D8A41AEF06F0355016
:100C30001AEF06F012004AEC06F043EC12F00850EE
:100C40000408D8A42DEF06F0222A22500308D8A4C5
:100C50002BEF06F0226A4AEC06F008500808D8A4E8
:100C60003DEF06F02252D8A438EF06F0030E226EB4
:100C7000010E225C226E4AEC06F0020EF4EC1CF02F
:100C800008500208D8A447EF06F049EF06F01DEF20
:100C900006F01200A6EC1CF022500108D8A459EF6F
:100CA00006F0ECEC1BF09DEC1CF05EEC1CF06CEF25
:100CB00006F022500208D8A466EF06F013EC1CF0F0
:100CC0009DEC1CF055EC1CF06CEF06F0ECEC1BF00E
:100CD0009DEC1CF055EC1CF0A0EC1CF0F5EF19F0AD
:100CE0009FEC06F043EC12F008500408D8A482EF01
:100CF00006F0212A21500308D8A480EF06F0216ACB
:100D00009FEC06F008500808D8A492EF06F0215294
:100D1000D8A48DEF06F0030E216E010E215C216E2A
:100D20009FEC06F0020EF4EC1CF008500208D8A468
:100D30009CEF06F09EEF06F072EF06F01200A6ECB4
:100D40001CF021500108D8A4AEEF06F0ECEC1BF02B
:100D50009DEC1CF05EEC1CF0C1EF06F02150020887
:100D6000D8A4BBEF06F013EC1CF09DEC1CF055EC86
:100D70001CF0C1EF06F0ECEC1BF09DEC1CF055EC08
:100D80001CF0A0EC1CF0F5EF19F0010E4D6E4D506B
:100D90000108D8A4F4EF06F0A6EC1CF0480EC0EC55
:100DA0001CF0570EC0EC1CF03A0EC0EC1CF0200EEC
:100DB000C0EC1CF03652D8A4E0EF06F05BEC18F063
:100DC00036500108D8A4E7EF06F03DEC18F0365095
:100DD0000208D8A4EEEF06F01CEC18F0F5EC19F0C0
:100DE0004D6A030EF4EC1CF043EC12F008500408BA
:100DF000D8A406EF07F036500208D8A403EF07F096
:100E0000366A04EF07F0362A010E4D6E08500808C6
:100E1000D8A418EF07F03652D8A413EF07F0020E4B
:100E2000366E16EF07F0010E365C366E010E4D6E13
:100E300008500208D8A41FEF07F021EF07F0C7EF12
:100E400006F01200010E4D6E008800A849EF07F071
:100E5000A6EC1CF04D500108D8A437EF07F0CCECFD
:100E60001AF09BEC07F06AEC1CF044EF07F0E3EC9F
:100E70001AF023500108D8A442EF07F0DDEC1BF074
:100E800044EF07F0D7EC1BF0A0EC1CF0FBEC19F0E2
:100E9000009843EC12F008500108D8A45EEF07F068
:100EA00000884D500108D8A459EF07F04D6A5BEF58
:100EB00007F0010E4D6E030EF4EC1CF00850040810
:100EC000D8B468EF07F008500808D8A491EF07F0ED
:100ED0004D52D8A478EF07F02352D8A474EF07F04E
:100EE000010E236E75EF07F0236A00888EEF07F07E
:100EF00008500408D8A485EF07F0FF0E245CD8B092
:100F000083EF07F0242A8DEF07F024500108D8B0B2
:100F10008DEF07F0010E245C246E0088020EF4ECC5
:100F20001CF008500208D8A498EF07F09AEF07F0D9
:100F300025EF07F01200008A24504E6E4E50586E76
:100F4000640E596EC6EC1DF04F6E4F500008D8A4C9
:100F5000AFEF07F0200EC0EC1CF0BBEF07F04E50D7
:100F6000586E640E596EC6EC1DF0506E5050300F26
:100F7000C0EC1CF0009A4E50556E640E566EB5ECE7
:100F80001DF0506E50504E6E4E50586E0A0E596EF7
:100F9000C6EC1DF0516E51500008D8A4DDEF07F0EB
:100FA00000AAD8EF07F0200EC0EC1CF0DBEF07F032
:100FB000300EC0EC1CF0E8EF07F04E50586E0A0EF1
:100FC000596EC6EC1DF0526E5250300FC0EC1CF042
:100FD0004E50556E0A0E566EB5EC1DF0526E5250C4
:100FE0004E6E4E50300FC0EF1CF0080E4D6EA6EC4A
:100FF0001CF04D5029EC1AF04D5011EC09F0E6ECC4
:101000001BF0FBEC19F043EC12F008500408D8A4D4
:1010100018EF08F04D50B7EC08F0A3EC1CF04D5061
:1010200029EC1AF04D5011EC09F0030EF4EC1CF011
:1010300008500808D8A42BEF08F04D504DEC08F0EC
:10104000A3EC1CF04D5029EC1AF04D5011EC09F0B6
:10105000030EF4EC1CF008500208D8A432EF08F09C
:101060004CEF08F008500108D8A44AEF08F04D2AC8
:101070004D500908D8A43FEF08F0010E4D6EA3ECC7
:101080001CF04D5029EC1AF04D5011EC09F0030EF4
:10109000F4EC1CF003EF08F012004E6E4E50010805
:1010A000D8A45BEF08F026500008D8B05BEF08F03A
:1010B000010E265C266E4E500208D8A468EF08F098
:1010C00027500008D8B068EF08F0010E275C276EA3
:1010D0004E500308D8A475EF08F028500008D8B087
:1010E00075EF08F0010E285C286E4E500408D8A455
:1010F00082EF08F029500008D8B082EF08F0010E06
:10110000295C296E4E500508D8A48FEF08F02A50AC
:101110000008D8B08FEF08F0010E2A5C2A6E4E50FE
:101120000608D8A49CEF08F02B500008D8B09CEF1C
:1011300008F0010E2B5C2B6E4E500708D8A4A9EFC7
:1011400008F02C500008D8B0A9EF08F0010E2C5C74
:101150002C6E4E500808D8A4B6EF08F02D500008A9
:10116000D8B0B6EF08F0010E2D5C2D6E12004E6E59
:101170004E500108D8A4C3EF08F0FF0E265CD8B08B
:10118000C3EF08F0262A4E500208D8A4CEEF08F08C
:10119000FF0E275CD8B0CEEF08F0272A4E50030888
:1011A000D8A4D9EF08F0FF0E285CD8B0D9EF08F02A
:1011B000282A4E500408D8A4E4EF08F0FF0E295C5A
:1011C000D8B0E4EF08F0292A4E500508D8A4EFEF74
:1011D00008F0FF0E2A5CD8B0EFEF08F02A2A4E5034
:1011E0000608D8A4FAEF08F0FF0E2B5CD8B0FAEF8F
:1011F00008F02B2A4E500708D8A405EF09F0FF0E7F
:101200002C5CD8B005EF09F02C2A4E500808D8A461
:1012100010EF09F0FF0E2D5CD8B010EF09F02D2A69
:1012200012004E6E4E500108D8A41BEF09F0265054
:101230004F6E58EF09F04E500208D8A424EF09F081
:1012400027504F6E58EF09F04E500308D8A42DEFE9
:1012500009F028504F6E58EF09F04E500408D8A4FA
:1012600036EF09F029504F6E58EF09F04E5005083F
:10127000D8A43FEF09F02A504F6E58EF09F04E50B6
:101280000608D8A448EF09F02B504F6E58EF09F02C
:101290004E500708D8A451EF09F02C504F6E58EF6C
:1012A00009F04E500808D8A458EF09F02D504F6EA1
:1012B0004F5000018008D8A462EF09F0C00E4F6EB5
:1012C00071EF09F0800E4F5CD8B06DEF09F04F5010
:1012D0008008C0084F6E71EF09F0800E4F5CC00FA0
:1012E0004F6E4F5010EF0FF0A6EC1CF0F5EC19F01C
:1012F0002552D8A480EF09F0AFEC19F082EF09F085
:101300008AEC19F043EC12F008500408D8A499EFC5
:1013100009F02552D8A493EF09F0010E256E8AEC4E
:1013200019F096EF09F0256AAFEC19F0030EF4EC12
:101330001CF008500808D8A4AEEF09F02552D8A434
:10134000A8EF09F0010E256E8AEC19F0ABEF09F059
:10135000256AAFEC19F0030EF4EC1CF008500208FB
:10136000D8A4B5EF09F0B7EF09F082EF09F0120049
:10137000010E4D6E008843EC12F000A8CCEF09F08E
:10138000A6EC1CF0FBEC17F0145010EC0FF0A0ECE6
:101390001CF0F5EC19F0009808500408D8A4D8EF18
:1013A00009F0FF0E145CD8B0D8EF09F0142A0088B9
:1013B00008500808D8A4E6EF09F014500108D8B086
:1013C000E6EF09F0010E145C146E0088020EF4ECD6
:1013D0001CF008500208D8A4F0EF09F0F2EF09F071
:1013E000BBEF09F01200F6EC16F04F504D6E505066
:1013F0004E6E009800BC0088009A00BE008AA6ECE1
:101400001CF0A3EC1CF0610EC0EC1CF03A0EC0EC1A
:101410001CF0200EC0EC1CF0040E506E4D50516EAE
:10142000200E1EEC0DF0200EC0EC1CF02F0EC0ECB8
:101430001CF0200EC0EC1CF0630EC0EC1CF03A0E49
:10144000C0EC1CF0200EC0EC1CF0040E506E4E5090
:10145000516E200E1EEC0DF0A0EC1CF0740EC0ECD2
:101460001CF03A0EC0EC1CF0200EC0EC1CF000A8E2
:101470003FEF0AF0310EC0EC1CF042EF0AF0300EE4
:10148000C0EC1CF0200EC0EC1CF06F0EC0EC1CF089
:101490006B0EC0EC1CF03A0EC0EC1CF0200EC0EC41
:1014A0001CF000AA59EF0AF0310EC0EC1CF05CEF02
:1014B0000AF0300EC0EC1CF0200EC0EC1CF0140E34
:1014C00093EC15F043EC12F008500208D8A46BEF2F
:1014D0000AF06DEF0AF0F3EF09F01200010E4D6E05
:1014E000010E4E6E030EF4EC1CF0F6EC16F04F50AD
:1014F000066E5050076E009200BC0082009400BE41
:10150000008400A489EF0AF04E50B0EC0AF0010EFE
:101510004D6E4D500108D8A492EF0AF04E5027ECC2
:101520000BF04D6A43EC12F008500208D8A49BEF70
:101530000AF0AFEF0AF008500108D8A4AAEF0AF0A9
:101540004E2A4E500E08D8A4A8EF0AF0010E4E6E97
:10155000010E4D6E030EF4EC1CF075EF0AF0120054
:101560004F6E4F500108D8A4BAEF0AF00650386EFB
:101570000750396E4F500208D8A4C3EF0AF0065046
:101580003A6E07503B6E4F500308D8A4CCEF0AF0D8
:1015900006503C6E07503D6E4F500408D8A4D5EF5E
:1015A0000AF006503E6E07503F6E4F500508D8A413
:1015B000DEEF0AF00650406E0750416E4F500608AD
:1015C000D8A4E7EF0AF00650426E0750436E4F5022
:1015D0000708D8A4F0EF0AF00650446E0750456E95
:1015E0004F500808D8A4F9EF0AF00650466E07508D
:1015F000476E4F500908D8A402EF0BF00650186E42
:101600000750196E4F500A08D8A40BEF0BF0065084
:10161000166E0750176E4F500B08D8A414EF0BF03E
:1016200006501A6E07501B6E4F500C08D8A41DEFC1
:101630000BF006501C6E07501D6E4F500D08D8A4BD
:1016400026EF0BF006501E6E07501F6E12004F6EF5
:10165000A6EC1CF04F500108D8A449EF0BF064EC45
:101660001CF04F50300FC0EC1CF09DEC1CF085ECD2
:101670001CF0040E506E3850516E200E1EEC0DF012
:1016800070EC1CF0040E506E3950516E200E1EECA2
:101690000DF04F500208D8A468EF0BF064EC1CF07A
:1016A0004F50300FC0EC1CF09DEC1CF085EC1CF092
:1016B000040E506E3A50516E200E1EEC0DF070EC80
:1016C0001CF0040E506E3B50516E200E1EEC0DF0BF
:1016D0004F500308D8A487EF0BF064EC1CF04F5078
:1016E000300FC0EC1CF09DEC1CF085EC1CF0040EDF
:1016F000506E3C50516E200E1EEC0DF070EC1CF044
:10170000040E506E3D50516E200E1EEC0DF04F50E9
:101710000408D8A4A6EF0BF064EC1CF04F50300F77
:10172000C0EC1CF09DEC1CF085EC1CF0040E506E1F
:101730003E50516E200E1EEC0DF070EC1CF0040EAD
:10174000506E3F50516E200E1EEC0DF04F500508AC
:10175000D8A4C5EF0BF064EC1CF04F50300FC0EC78
:101760001CF09DEC1CF085EC1CF0040E506E4050FB
:10177000516E200E1EEC0DF070EC1CF0040E506E3D
:101780004150516E200E1EEC0DF04F500608D8A4AB
:10179000E4EF0BF064EC1CF04F50300FC0EC1CF089
:1017A0009DEC1CF085EC1CF0040E506E4250516E06
:1017B000200E1EEC0DF070EC1CF0040E506E435029
:1017C000516E200E1EEC0DF04F500708D8A403EF09
:1017D0000CF064EC1CF04F50300FC0EC1CF09DEC92
:1017E0001CF085EC1CF0040E506E4450516E200E1F
:1017F0001EEC0DF070EC1CF0040E506E4550516E56
:10180000200E1EEC0DF04F500808D8A422EF0CF06B
:1018100064EC1CF04F50300FC0EC1CF09DEC1CF041
:1018200085EC1CF0040E506E4650516E200E1EECDE
:101830000DF070EC1CF0040E506E4750516E200EEF
:101840001EEC0DF04F500908D8A43DEF0CF049EC08
:101850001CF09DEC1CF085EC1CF0040E506E185032
:10186000516E200E1EEC0DF070EC1CF0040E506E4C
:101870001950516E200E1EEC0DF04F500A08D8A4DE
:1018800058EF0CF079EC1CF09DEC1CF085EC1CF092
:10189000040E506E1650516E200E1EEC0DF070ECC2
:1018A0001CF0040E506E1750516E200E1EEC0DF001
:1018B0004F500B08D8A473EF0CF03DEC1CF09DECDE
:1018C0001CF085EC1CF0040E506E1A50516E200E68
:1018D0001EEC0DF070EC1CF0040E506E1B50516E9F
:1018E000200E1EEC0DF04F500C08D8A48EEF0CF01B
:1018F00022EC1CF09DEC1CF085EC1CF0040E506EEC
:101900001C50516E200E1EEC0DF070EC1CF0040EFD
:10191000506E1D50516E200E1EEC0DF04F500D08F4
:10192000D8A4A9EF0CF091EC1CF09DEC1CF085EC18
:101930001CF0040E506E1E50516E200E1EEC0DF069
:1019400070EC1CF0040E506E1F50516E200E1EECF9
:101950000DF0A0EC1CF0FBEF19F0A6EC1CF0ACECC9
:101960001AF0050E4D6E79EC11F0030EF4EC1CF03C
:1019700003808AEC1DF0038288EC1DF0038486EC62
:101980001DF0038684EC1DF0038882EC1DF0038AB1
:1019900080EC1DF0038C7EEC1DF0038E7CEC1DF0C2
:1019A000030EF4EC1CF04D2EB3EF0CF079EC11F0BB
:1019B000030E4D6E03808AEC1DF0030EF4EC1CF058
:1019C00079EC11F0038288EC1DF0030EF4EC1CF0AE
:1019D00079EC11F0038486EC1DF0030EF4EC1CF09E
:1019E00079EC11F0038684EC1DF0030EF4EC1CF08E
:1019F00079EC11F0038882EC1DF0030EF4EC1CF07E
:101A000079EC11F0038A80EC1DF0030EF4EC1CF06D
:101A100079EC11F0038C7EEC1DF0030EF4EC1CF05D
:101A200079EC11F0038E7CEC1DF0030EF4EC1CF04D
:101A300079EC11F04D2EDAEF0CF01200526E50508E
:101A4000556E5150586E640E596EC6EC1DF0556EB1
:101A50005550566E52505BEC0DF05750526E51502F
:101A6000556E640E566EB5EC1DF0536E5350516EAC
:101A70005050556E5150586E0A0E596EC6EC1DF0FE
:101A8000576E5750566E52505BEC0DF05750526ED9
:101A90005150556E0A0E566EB5EC1DF0546E5450F2
:101AA000516E5050556E5150566E52505BEC0DF0C9
:101AB0005750526E1200576E5652D8A46CEF0DF06C
:101AC0005752D8B46AEF0DF05750016E020E5524EC
:101AD00008EC00F084EF0DF00A0E565CD8B07AEFF7
:101AE0000DF05650300F016E020E552408EC00F038
:101AF00082EF0DF00A0E565C410F016E020E552466
:101B000008EC00F0300E576E12004F6E010E0E6E94
:101B100021500008D8B090EF0DF0058072EC1DF058
:101B200000864F50136E23500108D8A4A9EF0DF082
:101B300024500008D8B0A9EF0DF0CBEC10F04F50B6
:101B4000BEEC0DF04F50FEEC10F0A5EC10F0BDEF28
:101B50000DF004987AEC1DF0010EF4EC1CF04F50DF
:101B6000BEEC0DF04F50FEEC10F0F9EC10F0010E51
:101B7000F4EC1CF004887AEC1DF01200506E50500A
:101B80000108D8A4C6EF0DF02650516E505002083F
:101B9000D8A4CDEF0DF02750516E50500308D8A4B3
:101BA000D4EF0DF02850516E50500408D8A4DBEF4C
:101BB0000DF02950516E50500508D8A4E2EF0DF0F9
:101BC0002A50516E50500608D8A4E9EF0DF02B5062
:101BD000516E50500708D8A4F0EF0DF02C50516E04
:101BE00050500808D8A4F7EF0DF02D50516E235235
:101BF000D8A4FFEF0DF011500B6E12500C6E0B506D
:101C0000145C536E0C50145C546E800E155CD8B08E
:101C100023EF0EF015508008526E5350525CD8B02E
:101C200023EF0EF05450525CD8B023EF0EF0235245
:101C3000D8A41FEF0EF052501126525012265250C7
:101C40000B2652500C26155000018008D8B046EFE4
:101C50000EF0800E155C526E0B50525CD8B046EF01
:101C60000EF00C50525CD8B046EF0EF02352D8A4C0
:101C700040EF0EF05250115C116E5250125C126E19
:101C800052500B5C0B6E52500C5C0C6E5150156E2A
:101C90000B50145C536E0C50145C546E15500001C4
:101CA0008008D8B06DEF0EF0800E155C526E535068
:101CB000525CD8B06DEF0EF05450525CD8B06DEF5E
:101CC0000EF02352D8A469EF0EF052501126525054
:101CD000122652500B2652500C26800E155CD8B09E
:101CE0008FEF0EF015508008526E0B50525CD8B03A
:101CF0008FEF0EF00C50525CD8B08FEF0EF02352E5
:101D0000D8A489EF0EF05250115C116E5250125C43
:101D1000126E52500B5C0B6E52500C5C0C6E12002B
:101D2000A6EC1CF036500208D8B499EF0EF0CFECB8
:101D30000EF036500108D8B4CEEF0EF0A0EC1CF037
:101D40008BEC1CF0115010EC0FF0200EC0EC1CF0CE
:101D5000200EC0EC1CF07FEC1CF0125010EC0FF0C9
:101D60001152D8A4C3EF0EF0A0EC1CF08BEC1CF0C9
:101D7000200EC0EC1CF091EC1CF0200EC0EC1CF00E
:101D8000200EC0EC1CF01252D8A4CEEF0EF07FEC67
:101D90001CF0200EC0EC1CF091EC1CF01200135053
:101DA0000108D8A4D7EF0EF02E50A7EC0FF0135077
:101DB0000208D8A4DFEF0EF02F50A7EC0FF013505D
:101DC0000308D8A4E7EF0EF03050A7EC0FF0135043
:101DD0000408D8A4EFEF0EF03150A7EC0FF0135029
:101DE0000508D8A4F7EF0EF03250A7EC0FF013500F
:101DF0000608D8A4FFEF0EF03350A7EC0FF01350F5
:101E00000708D8A407EF0FF03450A7EC0FF01350D9
:101E10000808D8A40FEF0FF03550A7EC0FF0120010
:101E2000506EC00E505CD8B057EF0FF05050000805
:101E3000D8B057EF0FF02D0EC0EC1CF05050C0087A
:101E4000576E010E586EA6EC1DF0526E5250586E31
:101E50000A0E596EC6EC1DF0516E5150300FC0EC99
:101E60001CF05050C008576E010E586EA6EC1DF0C5
:101E7000546E5450556E0A0E566EB5EC1DF0536EEE
:101E80005350300FC0EC1CF02E0EC0EC1CF0505024
:101E9000010B0108D8A452EF0FF0350EC0EC1CF076
:101EA00055EF0FF0300EC0EC1CF0A6EF0FF0C00E97
:101EB000505CD8A0A6EF0FF050500008D8B0A6EFA5
:101EC0000FF050500001C008D8A46CEF0FF0200EA6
:101ED000C0EC1CF06FEF0FF02B0EC0EC1CF0C00E2E
:101EE000505C576E010E586EA6EC1DF0526E5250AB
:101EF000586E0A0E596EC6EC1DF0516E5150300FDF
:101F0000C0EC1CF0C00E505C576E010E586EA6EC73
:101F10001DF0546E5450556E0A0E566EB5EC1DF001
:101F2000536E5350300FC0EC1CF02E0EC0EC1CF062
:101F30005050010B0108D8A4A3EF0FF0350EC0ECF0
:101F40001CF0A6EF0FF0300EC0EC1CF012004E6E2D
:101F50004E500108D8A4AFEF0FF051EC19F04E50DD
:101F60000208D8A4B6EF0FF04CEC19F04E5003085D
:101F7000D8A4BDEF0FF084EC19F04E500408D8A49B
:101F8000C4EF0FF07FEC19F04E500508D8A4CBEF4A
:101F90000FF072EC18F04E500608D8A4D2EF0FF0F4
:101FA0006DEC18F04E500708D8A4D9EF0FF032ECC2
:101FB00019F04E500808D8A4E0EF0FF02DEC19F0FE
:101FC0004E500908D8A4E7EF0FF001EC19F04E507D
:101FD0000A08D8A4EEEF0FF0FCEC18F04E500B08F6
:101FE000D8A4F5EF0FF05FEC19F04E500C08D8A410
:101FF000FCEF0FF05AEC19F04E500D08D8A403EF87
:1020000010F070EC19F04E500E08D8A40AEF10F042
:102010006BEC19F04E500F08D8A411EF10F021EC22
:1020200019F04E501008D8A418EF10F01CEC19F05D
:102030004E501108D8A41FEF10F040EC19F04E508C
:102040001208D8A426EF10F03BEC19F04E501308FC
:10205000D8A42DEF10F0EDEC18F04E501408D8A4D1
:1020600034EF10F0E8EC18F04E501508D8A43BEF10
:1020700010F0E2EC18F04E501608D8A442EF10F021
:10208000DDEC18F04E501708D8A449EF10F0D4EC4E
:1020900018F04E501808D8A450EF10F0CFEC18F0FC
:1020A0004E501908D8A457EF10F0C0EC18F04E505D
:1020B0001A08D8A45EEF10F0BBEC18F04E501B08C5
:1020C000D8A465EF10F0B2EC18F04E501C08D8A45C
:1020D0006CEF10F0ADEC18F04E501D08D8A473EF63
:1020E00010F0A4EC18F04E501E08D8A47AEF10F0AF
:1020F0009FEC18F04E501F08D8A481EF10F099EC17
:1021000018F04E502008D8A488EF10F094EC18F086
:102110004E502108D8A48FEF10F08BEC18F04E50E1
:102120002208D8A496EF10F086EC18F04E50230841
:10213000D8A49DEF10F080EC18F04E502408D8A4DD
:10214000A4EF10F07BEC18F01200A6EC1CF0F7ECFA
:102150001AF09DEC1CF079EC1CF00B50115CD8A02F
:10216000B7EF10F00C50125CD8B0CAEF10F00B5063
:10217000115CD8B0BDEF10F0112A0C50125CD8B031
:10218000C3EF10F0122AF9EC10F0245004EC1DF00B
:10219000ADEF10F01200A6EC1CF0F7EC1AF09DEC7D
:1021A0001CF049EC1CF012500C6E11500B6E1150CB
:1021B0000008D8A0E1EF10F012500008D8B0F8EFF6
:1021C00010F011500008D8B0E9EF10F0010E115CCA
:1021D000116E12500008D8B0F1EF10F0010E125C31
:1021E000126EF9EC10F0245004EC1DF0D7EF10F053
:1021F00012001250506E1150AAEF15F0506E79EC8B
:1022000011F02552D8A445EF11F050500108D8A480
:102210000DEF11F003808AEC1DF050500208D8A495
:1022200015EF11F0038288EC1DF050500308D8A47C
:102230001DEF11F0038486EC1DF050500408D8A463
:1022400025EF11F0038684EC1DF050500508D8A44A
:102250002DEF11F0038882EC1DF050500608D8A431
:1022600035EF11F0038A80EC1DF050500708D8A418
:102270003DEF11F0038C7EEC1DF050500808D8A4FF
:1022800045EF11F0038E7CEC1DF025500108D8A419
:1022900076EF11F050500108D8A455EF11F00380EB
:1022A0008AEC1DF0038882EC1DF050500208D8A47F
:1022B00060EF11F0038288EC1DF0038A80EC1DF0C2
:1022C00050500308D8A46BEF11F0038486EC1DF086
:1022D000038C7EEC1DF050500408D8A476EF11F06A
:1022E000038684EC1DF0038E7CEC1DF05050136EC1
:1022F000120003908AEC1DF0039288EC1DF0039409
:1023000086EC1DF0039684EC1DF0039882EC1DF022
:10231000039A80EC1DF0039C7EEC1DF0039E7CEF85
:102320001DF0F6EC16F04F50066E5050076E0092FE
:1023300000BC0082009400BE008420500108D8A494
:1023400042EF12F000A442EF12F0086A06501E5C41
:10235000D8A4B2EF11F007501F5CD8A4B2EF11F06F
:102360000C0E086E06501A5CD8A4BEEF11F0075090
:102370001B5CD8A4BEEF11F0020E086E06501C5C68
:10238000D8A4CAEF11F007501D5CD8A4CAEF11F011
:10239000010E086E0650165CD8A4D6EF11F0075057
:1023A000175CD8A4D6EF11F0040E086E0650185C26
:1023B000D8A4E2EF11F00750195CD8A4E2EF11F0B5
:1023C000080E086E0650385CD8A4EEEF11F00750E6
:1023D000395CD8A4EEEF11F0010E096E06503A5C9C
:1023E000D8A4FAEF11F007503B5CD8A4FAEF11F033
:1023F000020E096E06503C5CD8A406EF12F007509E
:102400003D5CD8A406EF12F0040E096E06503E5C47
:10241000D8A412EF12F007503F5CD8A412EF12F0CC
:10242000080E096E0650405CD8A41EEF12F007504B
:10243000415CD8A41EEF12F0100E096E0650425CEB
:10244000D8A42AEF12F00750435CD8A42AEF12F068
:10245000200E096E0650445CD8A436EF12F00750E7
:10246000455CD8A436EF12F0400E096E0650465C6B
:10247000D8A442EF12F00750475CD8A442EF12F004
:10248000800E096E1200086A82AE48EF12F0082A28
:1024900082AC4DEF12F0020E082682AA52EF12F023
:1024A000040E082682A857EF12F0080E0826096AC3
:1024B00082A05CEF12F0092A82A261EF12F0020EF4
:1024C000092682A466EF12F0040E092682A66BEF9D
:1024D00012F0080E092683A070EF12F0100E0926E4
:1024E00083A275EF12F0200E092683A47AEF12F072
:1024F000400E092683A67FEF12F0800E09261200F7
:10250000116A126A010E136EFF0E146E800E156EA4
:10251000100E166E100E176E100E186E110E196E2C
:10252000120E1A6E2F0E1B6E120E1C6E350E1D6EC5
:10253000100E1E6E0D0E1F6E010E206E020E216E0D
:10254000020E226E010E236E0F0E246E256A800E7F
:10255000266E800E276E800E286E800E296E800EED
:102560002A6E800E2B6E800E2C6E800E2D6E030E4A
:102570002E6E0D0E2F6E070E306E0F0E316E090E81
:10258000326E050E336E110E346E0B0E356E366ADA
:10259000040E376E100E386E010E396E100E3A6E44
:1025A000020E3B6E100E3C6E030E3D6E100E3E6E24
:1025B000040E3F6E100E406E050E416E100E426E00
:1025C000060E436E100E446E070E456E100E466EDC
:1025D000080E476E486A496A4A6A1200010E4D6E3B
:1025E000115050EC1DF0020E4D6E125050EC1DF0CB
:1025F000030E4D6E135050EC1DF0050E4D6E155030
:1026000050EF1DF04D6A2A0E50EC1DF0010E4D6E7C
:10261000115050EC1DF0020E4D6E125050EC1DF09A
:10262000030E4D6E135050EC1DF0040E4D6E145001
:1026300050EC1DF0050E4D6E155050EC1DF0060EC1
:102640004D6E165050EC1DF0070E4D6E175050ECAD
:102650001DF0080E4D6E185050EC1DF0090E4D6E19
:10266000195050EC1DF00A0E4D6E1A5050EC1DF032
:102670000B0E4D6E1B5050EC1DF00C0E4D6E1C5091
:1026800050EC1DF00D0E4D6E1D5050EC1DF00E0E59
:102690004D6E1E5050EC1DF00F0E4D6E1F5050EC45
:1026A0001DF0100E4D6E205050EC1DF0110E4D6EB1
:1026B000215050EC1DF0120E4D6E225050EC1DF0CA
:1026C000130E4D6E235050EC1DF0140E4D6E245021
:1026D00050EC1DF0150E4D6E255050EC1DF0160EF1
:1026E0004D6E265050EC1DF0170E4D6E275050ECDD
:1026F0001DF0180E4D6E285050EC1DF0190E4D6E49
:10270000295050EC1DF01A0E4D6E2A5050EC1DF061
:102710001B0E4D6E2B5050EC1DF01C0E4D6E2C50B0
:1027200050EC1DF01D0E4D6E2D5050EC1DF01E0E88
:102730004D6E2E5050EC1DF01F0E4D6E2F5050EC74
:102740001DF0200E4D6E305050EC1DF0210E4D6EE0
:10275000315050EC1DF0220E4D6E325050EC1DF0F9
:10276000230E4D6E335050EC1DF0240E4D6E345040
:1027700050EC1DF0250E4D6E355050EC1DF0260E20
:102780004D6E365050EC1DF0270E4D6E375050EC0C
:102790001DF0280E4D6E385050EC1DF0290E4D6E78
:1027A000395050EC1DF02A0E4D6E3A5050EC1DF091
:1027B0002B0E4D6E3B5050EC1DF02C0E4D6E3C50D0
:1027C00050EC1DF02D0E4D6E3D5050EC1DF02E0EB8
:1027D0004D6E3E5050EC1DF02F0E4D6E3F5050ECA4
:1027E0001DF0300E4D6E405050EC1DF0310E4D6E10
:1027F000415050EC1DF0320E4D6E425050EC1DF029
:10280000330E4D6E435050EC1DF0340E4D6E44505F
:1028100050EC1DF0350E4D6E455050EC1DF0360E4F
:102820004D6E465050EC1DF0370E4D6E475050EC3B
:102830001DF0380E4D6E485050EC1DF0390E4D6EA7
:10284000495050EC1DF03A0E4D6E4A5050EF1DF0BD
:10285000010E4D6E65EC1DF04E50116E020E4D6E68
:1028600065EC1DF04E50126E030E4D6E65EC1DF0C2
:102870004E50136E040E4D6E65EC1DF04E50146EEE
:10288000050E4D6E65EC1DF04E50156E060E4D6E2C
:1028900065EC1DF04E50166E070E4D6E65EC1DF08A
:1028A0004E50176E080E4D6E65EC1DF04E50186EB2
:1028B000090E4D6E65EC1DF04E50196E0A0E4D6EF0
:1028C00065EC1DF04E501A6E0B0E4D6E65EC1DF052
:1028D0004E501B6E0C0E4D6E65EC1DF04E501C6E76
:1028E0000D0E4D6E65EC1DF04E501D6E0E0E4D6EB4
:1028F00065EC1DF04E501E6E0F0E4D6E65EC1DF01A
:102900004E501F6E100E4D6E65EC1DF04E50206E39
:10291000110E4D6E65EC1DF04E50216E120E4D6E77
:1029200065EC1DF04E50226E130E4D6E65EC1DF0E1
:102930004E50236E140E4D6E65EC1DF04E50246EFD
:10294000150E4D6E65EC1DF04E50256E160E4D6E3B
:1029500065EC1DF04E50266E170E4D6E65EC1DF0A9
:102960004E50276E180E4D6E65EC1DF04E50286EC1
:10297000190E4D6E65EC1DF04E50296E1A0E4D6EFF
:1029800065EC1DF04E502A6E1B0E4D6E65EC1DF071
:102990004E502B6E1C0E4D6E65EC1DF04E502C6E85
:1029A0001D0E4D6E65EC1DF04E502D6E1E0E4D6EC3
:1029B00065EC1DF04E502E6E1F0E4D6E65EC1DF039
:1029C0004E502F6E200E4D6E65EC1DF04E50306E49
:1029D000210E4D6E65EC1DF04E50316E220E4D6E87
:1029E00065EC1DF04E50326E230E4D6E65EC1DF001
:1029F0004E50336E240E4D6E65EC1DF04E50346E0D
:102A0000250E4D6E65EC1DF04E50356E260E4D6E4A
:102A100065EC1DF04E50366E270E4D6E65EC1DF0C8
:102A20004E50376E280E4D6E65EC1DF04E50386ED0
:102A3000290E4D6E65EC1DF04E50396E2A0E4D6E0E
:102A400065EC1DF04E503A6E2B0E4D6E65EC1DF090
:102A50004E503B6E2C0E4D6E65EC1DF04E503C6E94
:102A60002D0E4D6E65EC1DF04E503D6E2E0E4D6ED2
:102A700065EC1DF04E503E6E2F0E4D6E65EC1DF058
:102A80004E503F6E300E4D6E65EC1DF04E50406E58
:102A9000310E4D6E65EC1DF04E50416E320E4D6E96
:102AA00065EC1DF04E50426E330E4D6E65EC1DF020
:102AB0004E50436E340E4D6E65EC1DF04E50446E1C
:102AC000350E4D6E65EC1DF04E50456E360E4D6E5A
:102AD00065EC1DF04E50466E370E4D6E65EC1DF0E8
:102AE0004E50476E380E4D6E65EC1DF04E50486EE0
:102AF000390E4D6E65EC1DF04E50496E3A0E4D6E1E
:102B000065EC1DF04E504A6E1150145CD8B08BEF3E
:102B100015F01450116E1250145CD8B092EF15F0ED
:102B20001450126E12004F6E4F50506E5052D8B467
:102B3000A9EF15F0059270EC1DF0010EF4EC1CF0FD
:102B4000058270EC1DF0010EF4EC1CF0500696EFBF
:102B500015F01200516E049E74EC1DF0040E526EBE
:102B60005050800B0008D8B0BBEF15F0048C76EC09
:102B70001DF0BEEF15F0049C76EC1DF0048A78EC95
:102B80001DF0049A78EC1DF05050400B0008D8B0AE
:102B9000CFEF15F0048C76EC1DF0D2EF15F0049C0D
:102BA00076EC1DF0048A78EC1DF0049A78EC1DF0A8
:102BB0005050200B0008D8B0E3EF15F0048C76ECF1
:102BC0001DF0E6EF15F0049C76EC1DF0048A78EC1D
:102BD0001DF0049A78EC1DF05050100B0008D8B08E
:102BE000F7EF15F0048C76EC1DF0FAEF15F0049C6D
:102BF00076EC1DF0048A78EC1DF0049A78EC1DF058
:102C00005050080B0008D8B00BEF16F0048C76EC8F
:102C10001DF00EEF16F0049C76EC1DF0048A78ECA3
:102C20001DF0049A78EC1DF05050040B0008D8B049
:102C30001FEF16F0048C76EC1DF022EF16F0049CCA
:102C400076EC1DF0048A78EC1DF0049A78EC1DF007
:102C50005050020B0008D8B033EF16F0048C76EC1D
:102C60001DF036EF16F0049C76EC1DF0048A78EC2B
:102C70001DF0049A78EC1DF05050010B0008D8B0FC
:102C800047EF16F0048C76EC1DF04AEF16F0049C2A
:102C900076EC1DF0048A78EC1DF0049A78EC1DF0B7
:102CA0005150800B0008D8B05BEF16F0048C76EC26
:102CB0001DF05EEF16F0049C76EC1DF0048A78ECB3
:102CC0001DF0049A78EC1DF05150400B0008D8B06C
:102CD0006FEF16F0048C76EC1DF072EF16F0049C8A
:102CE00076EC1DF0048A78EC1DF0049A78EC1DF067
:102CF0005150200B0008D8B083EF16F0048C76EC0E
:102D00001DF086EF16F0049C76EC1DF0048A78EC3A
:102D10001DF0049A78EC1DF05150100B0008D8B04B
:102D200097EF16F0048C76EC1DF09AEF16F0049CE9
:102D300076EC1DF0048A78EC1DF0049A78EC1DF016
:102D40005150080B0008D8B0ABEF16F0048C76ECAD
:102D50001DF0AEEF16F0049C76EC1DF0048A78ECC2
:102D60001DF0049A78EC1DF05150040B0008D8B007
:102D7000BFEF16F0048C76EC1DF0C2EF16F0049C49
:102D800076EC1DF0048A78EC1DF0049A78EC1DF0C6
:102D90005150020B0008D8B0D3EF16F0048C76EC3B
:102DA0001DF0D6EF16F0049C76EC1DF0048A78EC4A
:102DB0001DF0049A78EC1DF05150010B0008D8B0BA
:102DC000E7EF16F0048C76EC1DF0EAEF16F0049CA9
:102DD00076EC1DF0048A78EC1DF0049A78EC1DF076
:102DE000522EB0EF15F0048E74EF1DF04F6A506A4A
:102DF000009CFF0E516EFF0E526E008E5150000867
:102E0000D8B004EF17F084A40EEF17F0010E0CEC0D
:102E10001DF0010E515C516EFEEF16F05152D8A418
:102E200015EF17F0009E97EF17F0060EFCEC1CF064
:102E3000FF0E526E52500008D8B020EF17F084A455
:102E400039EF17F0FF0E516E51500008D8B02AEF3D
:102E500017F084A434EF17F0010E40EC1DF0010EC2
:102E6000515C516E24EF17F0010E525C526E1AEF56
:102E700017F05252D8A440EF17F0009E97EF17F0CA
:102E800098EC17F084B446EF17F0009E98EC17F01A
:102E900084A44CEF17F0008C98EC17F084A453EF47
:102EA00017F0100E4F2698EC17F084A45AEF17F085
:102EB000080E4F2698EC17F084A461EF17F0040E6B
:102EC0004F2698EC17F084A468EF17F0020E4F26F7
:102ED00098EC17F084A46EEF17F04F2A98EC17F0D7
:102EE00084A475EF17F0200E502698EC17F084A4F8
:102EF0007CEF17F0100E502698EC17F084A483EFA7
:102F000017F0080E502698EC17F084A48AEF17F0FB
:102F1000040E502698EC17F084A491EF17F0020EDF
:102F2000502698EC17F084A497EF17F0502A12005F
:102F3000110E14EC1DF04E0E40EF1DF0550EC0ECBE
:102F40001CF0730EC0EC1CF0650EC0EC1CF0200EE3
:102F5000C0EC1CF0610EC0EC1CF0630EC0EC1CF069
:102F6000740EC0EC1CF0200EC0EC1CF0610EC0EC26
:102F70001CF0730EC0EC1CF0200EC0EC1CF0500EC8
:102F8000C0EC1CF0720EC0EC1CF0730EC0EC1CF018
:102F9000650EC0EC1CF0740EC0EF1CF0E6EC17F0F0
:102FA0009DEC1CF0E3EF19F0500EC0EC1CF0720E1B
:102FB000C0EC1CF0650EC0EC1CF0730EC0EC1CF0F5
:102FC000650EC0EC1CF0740EC0EF1CF0500EC0EC8F
:102FD0001CF06F0EC0EC1CF0770EC0EC1CF0650E00
:102FE000C0EC1CF0720EC0EC1CF0750EC0EC1CF0B6
:102FF000700EC0EF1CF04D0EC0EC1CF0610EC0EC6A
:103000001CF0780EC0EC1CF0200EC0EC1CF0560E2C
:10301000C0EC1CF06F0EC0EC1CF06C0EC0EC1CF091
:10302000750EC0EC1CF06D0EC0EC1CF0650EC0EC13
:103030001CF03A0EC0EF1CF0560EC0EC1CF06F0EE8
:10304000C0EC1CF06C0EC0EC1CF0750EC0EC1CF05B
:103050006D0EC0EC1CF0650EC0EC1CF0200EC0EC38
:103060001CF04F0EC0EC1CF06E0EC0EC1CF06C0E91
:10307000C0EC1CF0790EC0EF1CF0490EC0EC1CF047
:103080006E0EC0EC1CF0700EC0EC1CF0750EC0ECA7
:103090001CF0740EC0EC1CF0200EC0EC1CF04F0EA7
:1030A000C0EC1CF06E0EC0EC1CF06C0EC0EC1CF002
:1030B000790EC0EF1CF04E0EC0EC1CF06F0EC0EC91
:1030C0001CF0720EC0EC1CF06D0EC0EC1CF0610E1A
:1030D000C0EC1CF06C0EC0EF1CF072EC18F0320E5D
:1030E000C0EF1CF0440EC0EC1CF0410EC0EC1CF014
:1030F000430EC0EF1CF080EC18F0320EC0EF1CF055
:10310000500EC0EC1CF0430EC0EF1CF08BEC18F01E
:10311000320EC0EF1CF0440EC0EC1CF0410EC0ECAF
:103120001CF0540EC0EF1CF099EC18F0320EC0EFFA
:103130001CF04D0EC0EC1CF0440EC0EF1CF0A4ECD3
:1031400018F0320EC0EF1CF0440EC0EC1CF0430E21
:10315000C0EC1CF0430EC0EF1CF0B2EC18F0320EC5
:10316000C0EF1CF0530EC0EC1CF0410EC0EC1CF084
:10317000540EC0EF1CF0C0EC18F0320EC0EF1CF083
:10318000560EC0EC1CF0690EC0EC1CF0640EC0ECD6
:103190001CF0650EC0EC1CF06F0EC0EF1CF0D4EC00
:1031A00018F0320EC0EF1CF0560EC0EC1CF0430EAF
:1031B000C0EC1CF0520EC0EF1CF0E2EC18F0320E26
:1031C000C0EF1CF0540EC0EC1CF0560EC0EF1CF00B
:1031D000EDEC18F0320EC0EF1CF0540EC0EC1CF0F9
:1031E000750EC0EC1CF06E0EC0EC1CF0650EC0EC51
:1031F0001CF0720EC0EF1CF001EC19F0320EC0EFA3
:103200001CF0440EC0EC1CF0560EC0EC1CF0440E3A
:10321000C0EC1CF02D0EC0EC1CF0410EC0EC1CF0FC
:10322000750EC0EC1CF0640EC0EC1CF0690EC0EC16
:103230001CF06F0EC0EF1CF021EC19F0320EC0EF45
:103240001CF0530EC0EC1CF0410EC0EC1CF0430E01
:10325000C0EC1CF0440EC0EF1CF032EC19F0320E42
:10326000C0EF1CF0440EC0EC1CF0560EC0EC1CF07D
:10327000440EC0EF1CF040EC19F0320EC0EF1CF011
:10328000540EC0EC1CF0610EC0EC1CF0700EC0ECD3
:103290001CF0650EC0EF1CF051EC19F0320EC0EFBF
:1032A0001CF0410EC0EC1CF0750EC0EC1CF0780E4A
:1032B000C0EF1CF05FEC19F0320EC0EF1CF04C0EAA
:1032C000C0EC1CF0690EC0EC1CF06E0EC0EC1CF0E3
:1032D000650EC0EF1CF070EC19F0320EC0EF1CF060
:1032E000500EC0EC1CF0680EC0EC1CF06F0EC0EC71
:1032F0001CF06E0EC0EC1CF06F0EC0EF1CF084ECE6
:1033000019F0320EC0EF1CF0430EC0EC1CF0440E5E
:10331000C0EF1CF0A3EC1CF0D4EC19F03A0EC0EC9A
:103320001CF0200EC0EC1CF0440EC0EC1CF06F0E24
:10333000C0EC1CF0750EC0EC1CF0620EC0EC1CF072
:103340006C0EC0EC1CF0650EC0EC1CF0200EC0EC46
:103350001CF0200EC0EC1CF0200EC0EF1CF0A3EC03
:103360001CF0D4EC19F03A0EC0EC1CF0200EC0ECAE
:103370001CF0530EC0EC1CF0690EC0EC1CF06E0E7D
:10338000C0EC1CF0670EC0EC1CF06C0EC0EC1CF026
:10339000650EC0EC1CF0200EC0EC1CF0200EC0EC42
:1033A0001CF0200EC0EF1CF0490EC0EC1CF06E0E9D
:1033B000C0EC1CF0700EC0EC1CF0750EC0EC1CF0E4
:1033C000740EC0EF1CF0560EC0EC1CF06F0EC0EC7B
:1033D0001CF06C0EC0EC1CF0750EC0EC1CF06D0EF9
:1033E000C0EC1CF0650EC0EF1CF0A0EC1CF08BECE8
:1033F0001CF003EF1BF0A0EC1CF08BEC1CF003ECBA
:103400001BF0200EC0EC1CF0200EC0EC1CF07FEC7A
:103410001CF04E0EC0EC1CF0650EC0EC1CF0780EDB
:10342000C0EC1CF0740EC0EF1CF0A0EC1CF08BEC98
:103430001CF003EC1BF0200EC0EC1CF0200EC0ECC6
:103440001CF07FEC1CF02D0EC0EC1CF03E0EC0EF0B
:103450001CF04E6E41EC1AF0200EC0EC1CF0430E36
:10346000C0EC1CF0680EC0EC1CF04E50300FC0ECED
:103470001CF03A0EC0EF1CF04DEC1AF0730EC0EFCA
:103480001CF04F0EC0EC1CF0660EC0EC1CF0660E7B
:10349000C0EC1CF0730EC0EF1CF04F0EC0EC1CF023
:1034A000660EC0EC1CF0660EC0EC1CF0730EC0EC97
:1034B0001CF0650EC0EC1CF0740EC0EF1CF0490E41
:1034C000C0EC1CF06E0EC0EC1CF0700EC0EC1CF0DA
:1034D000750EC0EC1CF0740EC0EC1CF02D0EC0EC90
:1034E0001CF0540EC0EC1CF0790EC0EC1CF0700EF9
:1034F000C0EC1CF0650EC0EF1CF0520EC0EC1CF0CE
:10350000650EC0EC1CF0730EC0EC1CF0740EC0EC29
:103510001CF06F0EC0EC1CF0720EC0EC1CF0650EBF
:10352000C0EC1CF09DEC1CF0440EC0EC1CF0650ED1
:10353000C0EC1CF0660EC0EC1CF0610EC0EC1CF080
:10354000750EC0EC1CF06C0EC0EC1CF0740EC0ECE0
:103550001CF0730EC0EF1CF0520EC0EC1CF0650E98
:10356000C0EC1CF06C0EC0EC1CF0610EC0EC1CF04A
:10357000790EC0EC1CF02D0EC0EC1CF0540EC0EC0B
:103580001CF0650EC0EC1CF0730EC0EC1CF0740E49
:10359000C0EF1CF0F7EF1AF0F7EC1AF0640EC0EC75
:1035A0001CF0650EC0EC1CF06C0EC0EC1CF0610E43
:1035B000C0EC1CF0790EC0EC1CF03A0EC0EC1CF014
:1035C000200EC0EF1CF0550EC0EC1CF0730EC0ECCA
:1035D0001CF0650EC0EC1CF0200EC0EC1CF0F7ECEB
:1035E0001AF03A0EC0EC1CF0200EC0EF1CF0520E88
:1035F000C0EC1CF0610EC0EC1CF06D0EC0EC1CF0B9
:10360000700EC0EF1CF0450EC0EC1CF0780EC0EC44
:103610001CF0690EC0EC1CF0740EC0EF1CF0480EDC
:10362000C0EC1CF0610EC0EC1CF0720EC0EC1CF083
:10363000640EC0EC1CF0770EC0EC1CF0610EC0EC08
:103640001CF0720EC0EC1CF0650EC0EC1CF0200EDD
:10365000C0EC1CF0530EC0EC1CF0650EC0EC1CF06E
:10366000740EC0EC1CF0750EC0EC1CF0700EC0EFB8
:103670001CF0FEEC1BF06E0EC0EC1CF0610EC0ECFA
:103680001CF06D0EC0EC1CF0650EC0EC1CF0730E4F
:10369000C0EF1CF04D0EC0EC1CF0610EC0EC1CF035
:1036A000780EC0EC1CF0690EC0EC1CF06D0EC0EC86
:1036B0001CF0750EC0EC1CF06D0EC0EC1CF0200E62
:1036C000C0EC1CF0560EC0EC1CF06F0EC0EC1CF0F1
:1036D0006C0EC0EC1CF0750EC0EC1CF06D0EC0EC56
:1036E0001CF0650EC0EF1CF0520EC0EC1CF0430E37
:1036F000C0EC1CF0350EC0EC1CF09DEC1CF0490E2B
:10370000C0EC1CF0520EC0EC1CF02D0EC0EC1CF0F6
:10371000540EC0EC1CF0650EC0EC1CF0730EC0EC37
:103720001CF0740EC0EF1CF0520EC0EC1CF0430EE7
:10373000C0EC1CF0350EC0EC1CF09DEC1CF0490EEA
:10374000C0EC1CF0520EC0EC1CF02D0EC0EC1CF0B6
:10375000C8EF1BF0B6EC1BF09DEC1CF0C8EF1BF0A3
:10376000BFEC1BF09DEC1CF0C8EF1BF04C0EC0EC46
:103770001CF0430EC0EC1CF0440EC0EF1CF04C0ECD
:10378000C0EC1CF0450EC0EC1CF0440EC0EF1CF069
:10379000530EC0EC1CF0650EC0EC1CF0740EC0ECB7
:1037A0001CF0750EC0EC1CF0700EC0EF1CF04E0E3D
:1037B000C0EC1CF06F0EC0EF1CF0590EC0EC1CF0FA
:1037C000650EC0EC1CF0730EC0EF1CF0640EC0EC74
:1037D0001CF0420EC0EF1CF0410EC0EC1CF06C0E51
:1037E000C0EC1CF0770EC0EC1CF0610EC0EC1CF0BD
:1037F000790EC0EC1CF0730EC0EF1CF0430EC0EC51
:103800001CF0680EC0EC1CF0610EC0EC1CF06E0EDB
:10381000C0EC1CF06E0EC0EC1CF0650EC0EC1CF091
:103820006C0EC0EF1CF0440EC0EC1CF0650EC0EC3A
:103830001CF06C0EC0EC1CF0610EC0EC1CF0790E9C
:10384000C0EF1CF0520EC0EC1CF0690EC0EC1CF076
:10385000670EC0EC1CF0680EC0EC1CF0740EC0EFDC
:103860001CF04C0EC0EC1CF0610EC0EC1CF0730E92
:10387000C0EC1CF0740EC0EF1CF04C0EC0EC1CF041
:10388000650EC0EC1CF0660EC0EC1CF0740EC0EFB0
:103890001CF0440EC0EC1CF06F0EC0EC1CF0770E58
:1038A000C0EC1CF06E0EC0EF1CF04F0EC0EC1CF014
:1038B000660EC0EC1CF0660EC0EF1CF04F0EC0ECA4
:1038C0001CF06E0EC0EF1CF0430EC0EC1CF0680E36
:1038D000C0EF1CF06D0EC0EC1CF0730EC0EF1CF0BE
:1038E0002F0EC0EC1CF0630EC0EC1CF03A0EC0EFC3
:1038F0001CF0550EC0EC1CF0700EC0EF1CF0520E08
:10390000C0EC1CF03A0EC0EF1CF0610EC0EC1CF0D5
:103910003A0EC0EF1CF04C0EC0EC1CF03A0EC0EF9B
:103920001CF04D0EC0EC1CF0750EC0EC1CF0740EBB
:10393000C0EC1CF0650EC0EF1CF0200EC0EF1CF0B8
:10394000A80ECBEF1CF0800ECBEF1CF0080ECBECDA
:103950001CF0010ECBEC1CF0C80E32EC1DF0020E78
:10396000CBEC1CF0C80E32EC1DF0060ECBEC1CF0BC
:103970000C0ECBEC1CF0C80E32EF1DF00150586E4F
:10398000586E02888EEC1DF058380F0BDCEC1CF0E2
:103990005850DCEF1CF0506E02988EEC1DF0503841
:1039A0000F0BDCEC1CF0820E32EC1DF05050DCEC06
:1039B0001CF0820E32EF1DF0596E028A8CEC1DF065
:1039C000595090EC1DF0029A8CEC1DF0FA0E40EF6D
:1039D0001DF0000E90EC1DF002988EEC1DF0029A86
:1039E0008CEC1DF0926A1200516E5150546E640EB0
:1039F000556E0A0E1CEF1DF0536E5350546E640E3C
:103A0000556E010E1CEF1DF0506E5050546E0A0E94
:103A1000556E010E1CEF1DF0536E5350546E050E83
:103A2000556E010E1CEF1DF0536E5350546E010E77
:103A3000556E010E1CEF1DF0566EFF0E576E555061
:103A4000596E5450586E3B0E5724D8B024EF1DF0D9
:103A5000582E23EF1DF0592E21EF1DF0562E1FEF8B
:103A60001DF01200516E5150526E5252D8B43FEFB9
:103A70001DF00A0E40EC1DF0520635EF1DF012004D
:103A80005A6EFB0E5B6EFE0E5C6E5A505B24D8A025
:103A9000000C5C2447EF1DF01200070EC16E1200EF
:103AA0004E6E4D50A96E4E50A86EA69EA69CA68442
:103AB000F29E550EA76EAA0EA76EA682F28EA6B231
:103AC0005FEF1DF0A198A69412004E6E4D50A96EA6
:103AD000A69EA69CF29EA680A8504E6EF28E120064
:103AE0009AEF1DF09AEF1DF09DEF1DF09DEF1DF078
:103AF0009DEF1DF09DEF1DF0A0EF1DF0A0EF1DF05C
:103B0000A0EF1DF0A0EF1DF0A0EF1DF0A0EF1DF045
:103B1000A0EF1DF0A0EF1DF0A3EF1DF0A3EF1DF02F
:103B20005A6E5A500F0B5B6E0250F00B5B10026E18
:103B3000A3EF1DF00550846E12000450836E120036
:103B40000350816E12000250806E1200586E585061
:103B50000008D8B0B3EF1DF0D8905732010E585C72
:103B6000586EA7EF1DF057501200566E5652D8B43B
:103B7000C4EF1DF05650555CD8A0C4EF1DF0565050
:103B8000555C556EBAEF1DF055501200596E5A6AC9
:103B90005952D8B4D7EF1DF05950585CD8A0D7EF80
:103BA0001DF05950585C586E5A2ACCEF1DF05A50EF
:083BB0001200040E016E120068
:0200000400F00A
:020000040030CA
:0E00000000220C0E000180000FC00FE00F4028
:00000001FF
